:020000040008F2
:0420000000483FBB9A
:202008009A277648329A0006B2BDAABDA2BDFE26761F0304D0868F00C040062A8F40020884
:20201800D10E761F03031E94D00856BF08CC2BC42BD42B9CA0E42B94E2AF0006D0092B9494
:20202800D00A2B94D00B2B94D00C2B94D00D2B94D00F2B9476483E4EE8127800AD14621A97
:20203800E8167800AD146413E688000077007700BFA60F122901FF2080000FA6650B3B01CE
:20204800FF2FFFFF0FA662037E556F06285580006F0328557FFF8F00C040925586A490FF51
:20205800E590DC09DA0898C29255FFC798C476483E4EE8127800AD14621AE8167800AD1499
:202068006413E688000077007700BFA60F122901FF2080000FA6650B3B01FF2FFFFF0FA6F4
:2020780062037E566F06285680006F0328567FFF761F03038F00C0409256E2AF000683A45E
:2020880090FFE8504800DC0BDD0A98C59256FFC798C476483E4EE8127800AD14621AE816FD
:202098007800AD146413E688000077007700BFA60F122901FF2080000FA6650B3B01FF2F3E
:2020A800FFFF0FA662037E576F06285780006F0328577FFF8F00C040925783A490FFE590A5
:2020B800DC0DDD0C98C59257FFC798C476483E4EE8127800AD14621AE8167800AD14641327
:2020C800E688000077007700BFA60F122901FF2080000FA6650B3B01FF2FFFFF0FA66203A6
:2020D8007E586F06285880006F0328587FFF8DC0C0409258761F030183A38AA390FFBE09B4
:2020E8003100B6005901DD0EDC0F98C59258FFC7830498C4C2425C0076848000A04406A667
:2020F800A946D500C3487949764838020209768480008AA21E425DA106A676483A05761FF2
:202108000000E801F898E801F89AD08C0614761F0304E80E69D08F000201E2AF010EE80E5A
:2021180069D21E93761F0000D08EE302031E061A761F03041E93D092E300C30E761F0000AA
:20212800E2030093D014A893E3068112D01156BF0893D0102B93D012E3021318761F0303C8
:202138002B93D0182B93D0192B93D01A2B93D01B2B93D01C2B93D01D2B93D01E2B93D088D2
:20214800E0060293D08AE2030093E2AF0008E300080AE70000007700E71000407700E2AFFF
:202158000308E2770001D01F2B93D090E8504818E203019376483E4EE8127800AD146219EC
:20216800E8167800AD146412E688000077007700BFA60F12FF2004000FA6650B3B01FF2A1B
:20217800FFFF0FA662037E596F062859FC006F03285903FF761F03038F00C0409259E2AFCB
:20218800000A86A490FFE8504800DC19DA1898C2CC590700FFC798C476483E4EE8127800A9
:20219800AD146219E8167800AD146412E688000077007700BFA60F12FF2004000FA6650B14
:2021A8003B01FF2AFFFF0FA662037E5A6F06285AFC006F03285A03FF761F0303925A8F4083
:2021B800C040E2AF000C901F8AA5FF82E8504800DD1ADC1998C4CC5A07E0FFC498C5764858
:2021C8003E4EE8127800AD146219E8167800AD146412E688000077007700BFA60F12FF200F
:2021D80004000FA6650B3B01FF2AFFFF0FA662037E5B6F06285BFC006F03285B03FF8F40AE
:2021E800C040925B761F03038AA59003E2AF000EFF85DC1A98C4CC5B03FC8AA5E850480043
:2021F800FFC1DD1CDC1B98C4CC5B0400FFC998C576483E4EE8127800AD146219E8167800FD
:20220800AD146412E688000077007700BFA60F12FF2004000FA6650B3B01FF2AFFFF0FA63D
:2022180062037E5C6F06285CFC006F03285C03FF761F03038F40C0405603015CE2AF0010B9
:202228008AA590FFE8504800DD1DDC1C98C4CC5C0780FFC698C576483E4EE80223F9E80EF3
:202238000001E6940008AD14650428A903FF6F0CE5A0AD1463039A006F07E68E00007700E4
:202248007700BFA90F12CDA9000F761F03038F40C040FFC3E2AF00128AA5FF93903FE8505A
:202258004800DD1EDC1D98C599C476483E4EE80223F9E80E0001E6940008AD14650428A9AC
:2022680003FF6F0CE5A0AD1463039A006F07E68E000077007700BFA90F12CDA90003FFC1F9
:20227800761F030183A38AA3BE03FF9590FF3100B6005911DD1EDC1F99C598C48314C242DA
:202288005C1076848000A044A946D50006A6C3487949764838020203768480008AA21E422C
:202298005DA106A676483A05761F0304E801F898D0980628E2AF010EE80E69D08F00020470
:2022A800761F00001E93E302031CD096E70000C1F5A94593E2030193D024A8930EA9D021F8
:2022B800E2AF011656BF0893D0202B93D0222B93D028761F03032B93E7000040D0292B9321
:2022C800D02A2B93D02B2B93D02C2B93D02D2B93D02E2B93D094E20300938D0001119693B0
:2022D800D02FE2AF00142B93E850480076483E4EE8127800AD146219E8167800AD1464125F
:2022E800E688000077007700BFA60F12FF2004000FA6650B3B01FF2AFFFF0FA662037E5D54
:2022F8006F06285DFC006F03285D03FF761F03038F00C040925DE2AF001686A490FFE85026
:202308004800DC29DA2898C2CC5D0700FFC798C476483E4EE8127800AD146219E81678004C
:20231800AD146412E688000077007700BFA60F12FF2004000FA6650B3B01FF2AFFFF0FA62C
:2023280062037E5E6F06285EFC006F03285E03FF925E8F40C040761F0303901F8AA5FF82AA
:20233800E2AF0018DD2ADC2998C4CC5E07E0FFC498C576483E4EE8022BF9E80F8001E694F9
:202348000008AD14650428A90FFF6F0CE5A0AD1463039A006F07E68E000077007700BFA963
:202358000F12761F0305CDA900038AA38811FF9583A3761F0301DC2A99C493A98AA3FFC981
:20236800FFD191FF9003DC2B99C48AA3DD2DB6005921DC2C98C48AA3560302A690FF982CB2
:2023780092A6DC2EFFC590FF98C592A68324FFCDBE06310098C45C20C24276848000A04479
:2023880006A6D500A946C3487949764838020206768480008AA21E425DA106A676483A054B
:20239800761F0304D09C8F00020206241E93D09E06261E93D034A893D031062256BF08934C
:2023A800D0302B93D0322B93761F0303D0382B93D0392B93D03A2B93D03B2B93D03C2B9314
:2023B800D03D2B93D09A1E93D03E2B93D03FE2AF001A2B93E850480076483E4EE80227F907
:2023C800E80F0001E6940008AD14650428A907FF6F0CE5A0AD1463039A006F07E68E0000CF
:2023D80077007700BFA90F12CDA900FF761F03038F00C040FFC7E2AF001C86A49007E85063
:2023E8004800DC39DA3898C499C276483E4EE80227F9E80F0001E6940008AD14650428A9E6
:2023F80007FF6F0CE5A0AD1463039A006F07E68E000077007700BFA90F12CDA9001F761F73
:2024080003038F40C040FFC4E2AF001E8AA5FF92903FE8504800DD3ADC3998C599C47648BA
:202418003E4EE80227F9E80F0001E6940008AD14650428A907FF6F0CE5A0AD1463039A00D2
:202428006F07E68E000077007700BFA90F12CDA900038AA3761F030183A3FF95BE04310047
:20243800B600DC3A593199C4DD3B93A9FFC9FFD18AA391FF900199C5DC3C833498C45C3082
:20244800C24276848000A04406A6D500A946C3487949764838020204768480008AA21E42D1
:202458005DA106A676483A05761F0304D0A206121E93D0A48F000203061C1E93D0A606206F
:202468001E93D0A8061A1E93D0AA062C1E93D0AC061E1E93D0AE06161E93D0B006181E9312
:20247800D044A893D041060E56BF0893D0402B93D0422B93D048761F03032B93D0492B933A
:20248800D04A2B93D04B2B93D04C2B93D04D2B93D0A01E93D04E2B93D04FE2AF00202B9343
:20249800E850480076483E4EE8127800AD146219E8167800AD146412E688000077007700A3
:2024A800BFA60F12FF2004000FA6650B3B01FF2AFFFF0FA662037E5F6F06285FFC006F0382
:2024B800285F03FF8F00C040925F761F030386A490FFE2AF0022DC49DA4898C2CC5F070021
:2024C800FFC798C476483E4EE8127800AD146219E8167800AD146412E688000077007700D1
:2024D800BFA60F12FF2020000FA6650B3B01FF2DFFFF0FA662037E606F062860E0006F034D
:2024E80028601FFF8F40C0409260761F03038AA5901FE2AF0024FF82DC4998C4CC601FE012
:2024F8008AA5E8504800FFC4DD4BDC4A98C4CC602000FFCC98C576483E4EE80223F9E80EEE
:202508000001E6940008AD146504768003FF6F0CE5A0AD1456B400A66407E68E0000770047
:202518007700BFA60F12761F03038F40C040560301A6E2AF00268AA590FFE8504800DD4C1E
:20252800DC4B98C492A6FFC6900798C576483E4EE8127800AD146219E8167800AD1464127A
:20253800E688000077007700BFA60F12FF2004000FA6650B3B01FF2AFFFF0FA662037E61FD
:202548006F062861FC006F03286103FF92618F40C040761F0303901F8AA5FF82E2AF002807
:20255800DD4DDC4C98C4CC6107E0FFC498C576483E4EE8120200AD1465039A036F0CE5A075
:20256800AD1463039A006F07E68E000077007700BFA90F129003761F0302FF85980D761F46
:202578000303E2AF002A76483E4EE8120200AD1465039A036F0CE5A0AD1463039A006F073F
:20258800E68E000077007700BFA90F129003761F0302980E761F0303E2AF002C76483E4ED3
:20259800E8120200AD1465039A036F0CE5A0AD1463039A006F07E68E000077007700BFA960
:2025A8000F12560302A9761F0302900F980E761F0303E2AF002E76483E4EE811FC00AD14B5
:2025B80065039A016F0CE5A0AD1463039A006F07E68E000077007700BFA90F129001761FB8
:2025C8000302FF83980E761F0303E2AF003076483E4EE81217F0AD1465039A7F6F0CE5A0DD
:2025D800AD1463039A006F07E68E000077007700BFA90F12CDA90007FFC2761F030283A3C3
:2025E8008AA3BE05FF94900F3100B6005901DD4EDC4F99C598C48304C2425C0076848000FF
:2025F800A044A946D50006A6C3487949764838020205768480008AA21E425DA106A6764835
:202608003A05761F0305E8022BF8D0B206048F000206761F0304E80F80001E93D0B4E2AFCD
:20261800011406321E93D0B6062A1E93E7000040D054A893D05156BF0893761F0303D0502B
:202628002B93D0522B93D0582B93D0592B93D05A2B93D05B2B93D05C2B93D05D2B93D05E53
:202638002B93D05F2B93D0B8E2030093E2AF003276483E4EE8127800AD14621AE8167800A5
:20264800AD146413E688000077007700BFA60F122901FF2080000FA6650B3B01FF2FFFFF02
:202658000FA662037E626F06286280006F0328627FFF8F00C0409262761F030386A490FF98
:20266800E2AF0034DC59DA5898C29262FFC798C476483E4EE8127800AD14621AE816780047
:20267800AD146413E688000077007700BFA60F122901FF2080000FA6650B3B01FF2FFFFFD2
:202688000FA662037E636F06286380006F0328637FFF8F00C0409263761F030383A490FF67
:20269800E2AF0036DC5BDD5A98C59263FFC798C476483E4EE8127800AD14621AE81678000A
:2026A800AD146413E688000077007700BFA60F122901FF2080000FA6650B3B01FF2FFFFFA2
:2026B8000FA662037E646F06286480006F0328647FFF8F00C0409264761F030383A490FF33
:2026C800E2AF0038DC5DDD5C98C59264FFC798C476483E4EE8127800AD14621AE8167800D3
:2026D800AD146413E688000077007700BFA60F122901FF2080000FA6650B3B01FF2FFFFF72
:2026E8000FA662037E656F06286580006F0328657FFF9265761F030283A38AA390FFBE089D
:2026F8003100B6005911DD5EDC5F98C59265FFC7831498C4C2425C1076848000A04406A674
:20270800A946D500C3487949764838020208768480008AA21E425DA106A676483A05761FDC
:202718000304D0BA063A1E93D0BC063C8F0002601E93D0BE063E761F03051E93D0C00600F9
:202728001E93D0C20602761F03041E93D0C406341E93D0C6062E1E93D0C806381E93D0CADE
:2027380006361E93D0CC06301E93D064761F0303A893D06156BF0893D0602B93D062E2AF75
:20274800003A2B93D0682B93D0692B93D06A2B93D06B2B93D06C2B93D06D2B93D06E2B93AA
:20275800D06F2B9376483E4EE8120200AD1465039A036F0CE5A0AD1463039A006F07E68EAD
:20276800000077007700BFA90F129003761F03029828761F0303E2AF003C76483E4EE81241
:202778000200AD1465039A036F0CE5A0AD1463039A006F07E68E000077007700BFA90F1257
:20278800560302A9761F0302900F9828761F0303E2AF003E76483E4EE8120200AD1465035B
:202798009A036F0CE5A0AD1463039A006F07E68E000077007700BFA90F129003761F030235
:2027A800FF839828761F0304E2AF000076483E4EE8120200AD1465039A036F0CE5A0AD14D5
:2027B80063039A006F07E68E000077007700BFA90F129003761F03048D80C0A8FF85E2AFE7
:2027C800000298C276483E4EE8120200AD1465039A036F0CE5A0AD1463039A006F07E68EDE
:2027D800000077007700BFA90F129003761F03029829761F0304E2AF000476483E4EE81207
:2027E8000200AD1465039A036F0CE5A0AD1463039A006F07E68E000077007700BFA90F12E7
:2027F800560302A9761F0302900F9829761F0304E2AF000676483E4EE8120200AD14650321
:202808009A036F0CE5A0AD1463039A006F07E68E000077007700BFA90F129003761F0302C4
:20281800FF839829761F0304E2AF000876483E4EE8120200AD1465039A036F0CE5A0AD145B
:2028280063039A006F07E68E000077007700BFA90F129003761F0302FF859829761F030421
:20283800E2AF000A76483E4EE8120200AD1465039A036F0CE5A0AD1463039A006F07E68E2E
:20284800000077007700BFA90F129003761F0302982A761F0304E2AF000C76483E4EE8128D
:202858000200AD1465039A036F0CE5A0AD1463039A006F07E68E000077007700BFA90F1276
:20286800560302A9761F0302900F982A761F0304E2AF000C76483E4EE8023BF9E80FF801C0
:20287800E6940008AD14650428A9FFFF6F0CE5A0AD1463039A006F07E68E0000770077002C
:20288800BFA90F128F00C040CDA9000F761F0302C4A483A4FF933100B6005921DC6CDE6AE7
:2028980099C6DD6B93A9FFCBFFD3BE1291FF98C499C583245C20C24276848000A04406A656
:2028A800D500A946C3487949764838020212768480008AA21E425DA106A676483A05761F31
:2028B80001FC1A0700401A070010764834B2761F0304E2AF0010E8121640AD146006E590A4
:2028C800E203001076483F5C5CADDC945CA402008F44809CF6072B841E4C06C545A86C40BE
:2028D8008F4480005CADA0A9B6165DADDC9488A45CADC342DD8CDCA65DA5C2445CA476480A
:2028E8003A755200612D064CD0748F00C040E8021640761F03041E94D070926696948F4459
:2028F800812CD0789254E20300109694D07992539694D07A92529694D07B92519694D07C72
:2029080092509694D07D924F9694D07E924E9694D07F924D9694D07106C5900F9694FEA622
:2029180082BE86BE8BBE0006761F03000A039203526369022B030006B2BDAABDE20304BDC2
:20292800E20305BDE20306BDE20307BDFE0A8F40C0008D80C040FF2001128AA2F6032B85EC
:20293800D50076483FC3E597E596E595E594E590761F0000E593E592E591E203000CE203BB
:20294800000EE2030016E203001CE2030012E2030018E203001EE20300108F40C16A02106D
:202958008F00C040761F0000E2030022761F0000E2030714E203061AE2030502E2030420A5
:20296800E2030306E203020AE2030104E203000876483F3F8F40C16A02108F00C0507648F4
:202978003F3F8F40C16A02108F00C06076483F3F8F40C16A02108F00C07076483F3F8F40F4
:20298800C16A02108F00C08076483F3F8F40C16A02108F00C09076483F3F8F40C16A0210B4
:202998008F00C0A076483F3F8F40C16A02108F00C0B076483F3F7622761F01F0060818A9C0
:2029A800CFFF1E08060A51401E0A060818A9FCFF1E08060A51101E0A761A0216BE1C310016
:2029B800761F0303B6001E42D400D50202012B0056BF0104C2441E0276848000A94606A620
:2029C800C34856BF084976483802D17ED078761F0302E5902B92021CD0792B9A2B922B30DF
:2029D80056BF08312B332B32D07AE20300361E342B92D07B2B92D07C2B92D07D2B92D07FF8
:2029E8002B92FE8AE2AF07BEE2AF06BEE2AF05BEE2AF04BE86BE8BBE00069A278F083D818F
:2029F8009B01764834219A27764830E60006761F03009B009203520056B101A897CC000642
:202A0800761BFFF0E20000BDE63006002942561676256F00761BFFF0E20000BDE630060057
:202A18002942561676256F00761BFFF0E20000BDE63006002942561676256F00761BFFF021
:202A2800E20000BDE63006002942561676256F00761BFFF0E20000BDE630060029425616E0
:202A380076256F00761BFFF0E20000BDE63006002942561676256F00761BFFF0E20000BD39
:202A4800E63006002942561676256F00761BFFF0E20000BDE63006002942561676256F0055
:202A5800761BFFF0E20000BDE63006002942561676256F00761BFFF0E20000BDE630060007
:202A68002942561676256F00761BFFF0E20000BDE63006002942561676256F00761BFFF0D1
:202A7800E20000BDE63006002942561676256F00761BFFF0E20000BDE63006002942561690
:202A880076256F00761BFFF0E20000BDE63006002942561676256F00761BFFF0E20000BDE9
:202A9800E63006002942561676256F00761BFFF0E20000BDE63006002942561676256F0005
:202AA800761BFFF0E20000BDE63006002942561676256F00761BFFF0E20000BDE6300600B7
:202AB8002942561676256F00761BFFF0E20000BDE63006002942561676256F00761BFFF081
:202AC800E20000BDE63006002942561676256F00761BFFF0E20000BDE63006002942561640
:202AD80076256F00761BFFF0E20000BDE63006002942561676256F00761BFFF0E20000BD99
:202AE800E63006002942561676256F00761BFFF0E20000BDE63006002942561676256F00B5
:202AF800761BFFF0E20000BDE63006002942561676256F00761BFFF0E20000BDE630060067
:202B08002942561676256F00761BFFF0E20000BDE63006002942561676256F00761BFFF030
:202B1800E20000BDE63006002942561676256F00761BFFF0E20000BDE630060029425616EF
:202B280076256F00761BFFF0E20000BDE63006002942561676256F00761BFFF0E20000BD48
:202B3800E63006002942561676256F00761BFFF0E20000BDE63006002942561676256F0064
:202B4800761BFFF0E20000BDE63006002942561676256F00761BFFF0E20000BDE630060016
:202B58002942561676256F00761BFFF0E20000BDE63006002942561676256F00761BFFF0E0
:202B6800E20000BDE63006002942561676256F00761BFFF0E20000BDE6300600294256169F
:202B780076256F00761BFFF0E20000BDE63006002942561676256F00761BFFF0E20000BDF8
:202B8800E63006002942561676256F00761BFFF0E20000BDE63006002942561676256F0014
:202B9800761BFFF0E20000BDE63006002942561676256F00761BFFF0E20000BDE6300600C6
:202BA8002942561676256F00761BFFF0E20000BDE63006002942561676256F00761BFFF090
:202BB800E20000BDE63006002942561676256F00761BFFF0E20000BDE6300600294256164F
:202BC80076256F00761BFFF0E20000BDE63006002942561676256F00761BFFF0E20000BDA8
:202BD800E63006002942561676256F00761BFFF0E20000BDE63006002942561676256F00C4
:202BE800761BFFF0E20000BDE63006002942561676256F00761BFFF0E20000BDE630060076
:202BF8002942561676256F00761BFFF0E20000BDE63006002942561676256F00761BFFF040
:202C0800E20000BDE63006002942561676256F00761BFFF0E20000BDE630060029425616FE
:202C180076256F00761BFFF0E20000BDE63006002942561676256F00761BFFF0E20000BD57
:202C2800E63006002942561676256F00761BFFF0E20000BDE63006002942561676256F0073
:202C3800761BFFF0E20000BDE63006002942561676256F00761BFFF0E20000BDE630060025
:202C48002942561676256F00761BFFF0E20000BDE63006002942561676256F00761BFFF0EF
:202C5800E20000BDE63006002942561676256F00761BFFF0E20000BDE630060029425616AE
:202C680076256F00761BFFF0E20000BDE63006002942561676256F00761BFFF0E20000BD07
:202C7800E63006002942561676256F00761BFFF0E20000BDE63006002942561676256F0023
:202C8800761BFFF0E20000BDE63006002942561676256F00761BFFF0E20000BDE6300600D5
:202C98002942561676256F00761BFFF0E20000BDE63006002942561676256F00761BFFF09F
:202CA800E20000BDE63006002942561676256F00761BFFF0E20000BDE6300600294256165E
:202CB80076256F00761BFFF0E20000BDE63006002942561676256F00761BFFF0E20000BDB7
:202CC800E63006002942561676256F00761BFFF0E20000BDE63006002942561676256F00D3
:202CD800761BFFF0E20000BDE63006002942561676256F00761BFFF0E20000BDE630060085
:202CE8002942561676256F00761BFFF0E20000BDE63006002942561676256F00761BFFF04F
:202CF800E20000BDE63006002942561676256F00761BFFF0E20000BDE6300600294256160E
:202D080076256F00761BFFF0E20000BDE63006002942561676256F00761BFFF0E20000BD66
:202D1800E63006002942561676256F00761BFFF0E20000BDE63006002942561676256F0082
:202D2800761BFFF0E20000BDE63006002942561676256F00761BFFF0E20000BDE630060034
:202D38002942561676256F00761BFFF0E20000BDE63006002942561676256F00761BFFF0FE
:202D4800E20000BDE63006002942561676256F00761BFFF0E20000BDE630060029425616BD
:202D580076256F00761BFFF0E20000BDE63006002942561676256F00761BFFF0E20000BD16
:202D6800E63006002942561676256F00761BFFF0E20000BDE63006002942561676256F0032
:202D7800761BFFF0E20000BDE63006002942561676256F00761BFFF0E20000BDE6300600E4
:202D880029425616E28000BEFFF176177602761BFFF0E20000BDE630060029425616762592
:202D98006F00761BFFF0E20000BDE63006002942561676256F00761BFFF0E20000BDE6305B
:202DA80006002942561676256F00761BFFF0E20000BDE63006002942561676256F00761B77
:202DB800FFF0E20000BDE63006002942561676256F00761BFFF0E20000BDE63006002942CA
:202DC800561676256F00761BFFF0E20000BDE63006002942561676256F00761BFFF0E200F7
:202DD80000BDE63006002942561676256F00761BFFF0E20000BDE630060029425616762574
:202DE8006F00761BFFF0E20000BDE63006002942561676256F00761BFFF0E20000BDE6300B
:202DF80006002942561676256F00761BFFF0E20000BDE63006002942561676256F00761B27
:202E0800FFF0E20000BDE63006002942561676256F00761BFFF0E20000BDE6300600294279
:202E1800561676256F00761BFFF0E20000BDE63006002942561676256F00761BFFF0E200A6
:202E280000BDE63006002942561676256F00761BFFF0E20000BDE630060029425616762523
:202E38006F00761BFFF0E20000BDE63006002942561676256F00761BFFF0E20000BDE630BA
:202E480006002942561676256F00761BFFF0E20000BDE63006002942561676256F00761BD6
:202E5800FFF0E20000BDE63006002942561676256F00761BFFF0E20000BDE6300600294229
:202E6800561676256F00761BFFF0E20000BDE63006002942561676256F00761BFFF0E20056
:202E780000BDE63006002942561676256F00761BFFF0E20000BDE6300600294256167625D3
:202E88006F00761BFFF0E20000BDE63006002942561676256F00761BFFF0E20000BDE6306A
:202E980006002942561676256F00761BFFF0E20000BDE63006002942561676256F00761B86
:202EA800FFF0E20000BDE63006002942561676256F00761BFFF0E20000BDE63006002942D9
:202EB800561676256F00761BFFF0E20000BDE63006002942561676256F00761BFFF0E20006
:202EC80000BDE63006002942561676256F00761BFFF0E20000BDE630060029425616762583
:202ED8006F00761BFFF0E20000BDE63006002942561676256F00761BFFF0E20000BDE6301A
:202EE80006002942561676256F00761BFFF0E20000BDE63006002942561676256F00761B36
:202EF800FFF0E20000BDE63006002942561676256F00761BFFF0E20000BDE6300600294289
:202F0800561676256F00761BFFF0E20000BDE63006002942561676256F00761BFFF0E200B5
:202F180000BDE63006002942561676256F00761BFFF0E20000BDE630060029425616762532
:202F28006F00761BFFF0E20000BDE63006002942561676256F00761BFFF0E20000BDE630C9
:202F380006002942561676256F00761BFFF0E20000BDE63006002942561676256F00761BE5
:202F4800FFF0E20000BDE63006002942561676256F00761BFFF0E20000BDE6300600294238
:202F5800561676256F00761BFFF0E20000BDE63006002942561676256F00520188A9FFE163
:202F6800016B9B00528056B701A8530060039CE06F0308A9FF80CCA9FFF8FFE1015D92A604
:202F78005202FFE1014B9B00528056B701A8530060039CE06F0308A9FF80FFC25201FFE1CE
:202F8800013D92A65203FFE1012B9B00528056B701A8530060039CE06F0308A9FF80FFC29A
:202F98005202FFE1011D92A65204FFE1010B9B00528056B701A8530060039CE06F0308A9D5
:202FA800FF80FFC25203FFE100FD92A65205FFE100EB9B00528056B701A8530060039CE0E8
:202FB8006F0308A9FF80FFC25204FFE100DD92A65206FFE100CB9B00528056B701A85300D2
:202FC80060039CE06F0308A9FF80FFC25205FFE100BD92A65207FFE100AB9B00528056B71D
:202FD80001A8530060039CE06F0308A9FF80FFC25206FFE1009D92A65208FFE1008B9B002E
:202FE800528056B701A8530060039CE06F0308A9FF80FFC25207617D92A65209616C9B007A
:202FF800528056B701A8530060039CE06F0308A9FF80FFC25208615F92A6520A614D9B00A5
:20300800528056B701A8530060039CE06F0308A9FF80FFC25209614092A6520B612E9B00D0
:20301800528056B701A8530060039CE06F0308A9FF80FFC2520A612192A6520C610F9B00FC
:20302800528056B701A8530060039CE06F0308A9FF80FFC2520BFFE000B192A6900788A97E
:20303800761F0033560303A82DA992A672AC9A01FF669839FFEF00A092A6900788A9761F8C
:203048000033560303A82DA992A672AC9A01FF669837FFEF009192A6900788A9761F0033EF
:20305800560303A82DA992A672AC9A01FF669835FFEF008292A6900788A9761F00335603CA
:2030680003A82DA992A672AC9A01FF6698336F7392A6900788A9761F0033560303A82DA922
:2030780092A672AC9A01FF6698316F6592A6900788A9761F0033560303A82DA992A672AC4D
:203088009A01FF66982F6F5792A6900788A9761F0033560303A82DA992A672AC9A01FF66A3
:20309800982D6F4992A6900788A9761F0033560303A82DA992A672AC9A01FF66982B6F3B36
:2030A80092A6900788A9761F0033560303A82DA992A672AC9A01FF6698296F2D92A69007E4
:2030B80088A9761F0033560303A82DA992A672AC9A01FF6698276F1F92A6900788A9761FED
:2030C8000033560303A82DA992A672AC9A01FF6698256F119B0092A65280761F003356B7CE
:2030D80001A8560303A82DA992A6900772AC9A01FF669823F6017700FF690006520188A94D
:2030E800FFE101929B00528056B701A8530060039CE06F0308A9FF80CCA9FFF8FFE101848D
:2030F80092A65202FFE1016F9B00528056B701A8530060039CE06F0308A9FF80FFC25201D1
:20310800FFE1016192A65203FFE1014C9B00528056B701A8530060039CE06F0308A9FF80B4
:20311800FFC25202FFE1013E92A65204FFE101299B00528056B701A8530060039CE06F0304
:2031280008A9FF80FFC25203FFE1011B92A65205FFE101069B00528056B701A853006003F6
:203138009CE06F0308A9FF80FFC25204FFE100F892A65206FFE100E39B00528056B701A8F4
:20314800530060039CE06F0308A9FF80FFC25205FFE100D592A65207FFE100C09B00528028
:2031580056B701A8530060039CE06F0308A9FF80FFC25206FFE100B292A65208FFE1009D13
:203168009B00528056B701A8530060039CE06F0308A9FF80FFC25207FFE1008F92A6520934
:2031780061789B00528056B701A8530060039CE06F0308A9FF80FFC25208616B92A6520AEC
:2031880061559B00528056B701A8530060039CE06F0308A9FF80FFC25209614892A6520B20
:2031980061329B00528056B701A8530060039CE06F0308A9FF80FFC2520A612592A6520C54
:2031A800610F9B00528056B701A8530060039CE06F0308A9FF80FFC2520BFFE000E492A687
:2031B800900780A9761F0033560303A82DA993A792A673AC9B01FF6799385280FFE700C7B2
:2031C800FFEF00C892A6900780A9761F0033560303A82DA993A792A673AC9B01FF67993635
:2031D8005280FFE700B4FFEF00B592A6900780A9761F0033560303A82DA993A792A673AC9D
:2031E8009B01FF6799345280FFE700A1FFEF00A292A6900780A9761F0033560303A82DA975
:2031F80093A792A673AC9B01FF6799325280FFE7008EFFEF008F92A6900780A9761F0033D6
:20320800560303A82DA993A792A673AC9B01FF6799305280677B6F7D92A6900780A9761F43
:203218000033560303A82DA993A792A673AC9B01FF67992E5280676A6F6C92A6900780A9B9
:20322800761F0033560303A82DA993A792A673AC9B01FF67992C528067596F5B92A6900761
:2032380080A9761F0033560303A82DA993A792A673AC9B01FF67992A528067486F4A92A6E3
:20324800900780A9761F0033560303A82DA993A792A673AC9B01FF679928528067376F3998
:2032580092A6900780A9761F0033560303A82DA993A792A673AC9B01FF679926528067260B
:203268006F2892A6900780A9761F0033560303A82DA993A792A673AC9B01FF6799245280F3
:2032780067156F179B0092A65280761F003356B701A8560303A82DA993A6910792A673AC0F
:203288009B01FF6799225280680408A6FF806F02DEA092A6FFC22DA99A01FF6620A8CAA806
:2032980023A90006520188A9FFE101739B00528056B701A8530060039CE06F0308A9FF8075
:2032A800CCA9FFF8FFE1016592A65202FFE101529B00528056B701A8530060039CE06F03CE
:2032B80008A9FF80FFC25201FFE1014492A65203FFE101319B00528056B701A85300600315
:2032C8009CE06F0308A9FF80FFC25202FFE1012392A65204FFE101109B00528056B701A80D
:2032D800530060039CE06F0308A9FF80FFC25203FFE1010292A65205FFE100EF9B0052803E
:2032E80056B701A8530060039CE06F0308A9FF80FFC25204FFE100E192A65206FFE100CE26
:2032F8009B00528056B701A8530060039CE06F0308A9FF80FFC25205FFE100C092A6520776
:20330800FFE100AD9B00528056B701A8530060039CE06F0308A9FF80FFC25206FFE1009F89
:2033180092A65208FFE1008C9B00528056B701A8530060039CE06F0308A9FF80FFC2520786
:20332800617E92A65209616C9B00528056B701A8530060039CE06F0308A9FF80FFC2520834
:20333800615F92A6520A614D9B00528056B701A8530060039CE06F0308A9FF80FFC2520960
:20334800614092A6520B612E9B00528056B701A8530060039CE06F0308A9FF80FFC2520A8C
:20335800612192A6520C610F9B00528056B701A8530060039CE06F0308A9FF80FFC2520BB8
:20336800FFE000B892A6900788A9761F0033560303A82DA992A672AC9A01FF66FF5EC03861
:20337800000692A6900788A9761F0033560303A82DA992A672AC9A01FF66FF5EC0360006DE
:2033880092A6900788A9761F0033560303A82DA992A672AC9A01FF66FF5EC034000692A69E
:20339800900788A9761F0033560303A82DA992A672AC9A01FF66FF5EC032000692A6900731
:2033A80088A9761F0033560303A82DA992A672AC9A01FF66FF5EC030000692A6900788A989
:2033B800761F0033560303A82DA992A672AC9A01FF66FF5EC02E000692A6900788A9761F17
:2033C8000033560303A82DA992A672AC9A01FF66FF5EC02C000692A6900788A9761F00336B
:2033D800560303A82DA992A672AC9A01FF66FF5EC02A000692A6900788A9761F0033560337
:2033E80003A82DA992A672AC9A01FF66FF5EC028000692A6900788A9761F0033560303A8D7
:2033F8002DA992A672AC9A01FF66FF5EC026000692A6900788A9761F0033560303A82DA99E
:2034080092A672AC9A01FF66FF5EC02400069B0092A65280761F003356B701A8560303A8E0
:203418002DA992A6900772AC9A01FF66FF5EC0220006762229018F400D00560301A9560194
:2034280000A5A8C5761A00065280680593A908A8FF806F0393A99DE0FFD29CFF9D01520C9F
:203438006803530C660992A8761F00339CFF2DA99A01FF6696210006FF2007D07640A8387F
:20344800BE03FF2001FF761F17480F3067071A3100011831FFFE0F3068FBFF2007FF0F304B
:2034580060FD000EFFF00006B2BD76228D45D2008AA1761F1748DC3218C4FFFE1832FFFDFD
:20346800761A764834447622D008CC91FFFC50019608761A6F0E76221A2E0002761A76488A
:2034780034447622D008CC91FFFC50019608761AD02E40916DF18BBE0006B2BD76228D4520
:20348800D2008AA1761F1748DC3218C4FFFE1A320002761A764834447622D008CC91FFFC70
:2034980050019608761AD02E40916C0276258BBEFF6900067622761F17481808FFFC761ACF
:2034A80000067622761F1748CC08FFFE50029608761A00067622761F01C0CC25FF00505598
:2034B8009625CC25FF8050AA9625761A0006FE02E811FC0083A9AD14C4466321E802000123
:2034C800E27400097700770077007700E89048097700E68A000977007700BFA70F16026411
:2034D8001EAC0200566500A7F61F561700A6A9A903A71EA606A7FF301EA76F0B8F0004B060
:2034E8000200A8ABF61F561700A6A9A6B618DE8CBDAB0F167700770077007700E68B0009DD
:2034F8007700E70000407700E68A00007700A0A9BFAC0F12610902010FA5610376256F064E
:203508008F05E7406F038F05E70006A683A4C4A4D00C910FDD08FF69A3C5DE0818AB0000E6
:2035180018AAFFF083A4CAABCBAA1EC67F94ABA9DD10910FDC10A3C518AB000018AAFFF031
:20352800FE82CAABCBAA1EC40006B2BDA2BDFE0282A98D7FFFFE2F4B274A58497622FF58B4
:20353800610D02010FA3610376256F0E761F174D8D45E7401A0C00026F07761F174D8D4579
:20354800E7001A0C0001C5A1C4A1DF14DE141AC700011AC60002CCC1FFF0500596C1CCC12C
:20355800FF1F505096C1CCC10FFF1AA9500096C192A5600683A17680A000DD24C2C592A424
:20356800610D52016105520261065205600C8F40A0006F068F40A0016F038F40A0028AA13C
:20357800DC28A0C49B0128AC000192AA95AB72AC33A80EABBDA90F120EA0BDA90F167700F5
:20358800FF690201E68B0000E68B00091E42A2A9E2740008764834BFCCC1F8FF1AA90A00C2
:2035980096C1CCC1FFF8500A96C1761AD91406C19B009003FF5861FC06C1B602BE009B0089
:2035A80090030FA756B101A6FE8282BE92A68BBE0006B2BDAABDA2BDFE0C86A95BA42D57D4
:2035B800065A1E4ACCA3000388A92145D0088F05D20027A6929490038E567D442BAA0EA92D
:2035C8003A480FAB602DD032CC940002FFC00EA91EA792A3FFC1900127A906A70FAB60203E
:2035D8009344D01480A8929490FF0EA90FA76018D015CC941F00FFC70EA90FA26011D0156E
:2035E800C5489294901F0EA90FA7600A9345D02280A89294903F0EA90FA7FFE100B7762287
:2035F8009344D01480A8929490FF0EA90FA76012D015CC941F00FFC70EA90FA2600BD0155A
:20360800C5489294901F0EA90FA76004D00E40946D7583A4DD0E18C5FFFDF6787700AAA938
:20361800A348804483A4FF37CAABCBAADD0EFF3F18C5FFFEAFA71E4C761AF6427700D008C2
:2036280088A6929490030EA90FA6600ED032CC940002FFC00EA91EA692A3FFC1900180A974
:2036380006A60FA7611892A361135201610D5202610752056010FF69764834856F0CFF69E8
:20364800764834A96F08FF697648345C6F04FF69764834A2F63C770076227685D200D11438
:2036580083A68AA6064CD016DD22DC0E18C5FFC01E9E1AC40001CC96000180A9AAA9FF398A
:20366800FF1A00011EA692A75201610A06A66108761F1748CC160001DE81520160F8761AE7
:20367800924496415CA3D500FF69924896427A43064A7648352D5200612776229245523F90
:203688006006761F17481A22003F6F0C9A01D0228F05D2009445CD94FFC0903FD022CAA8B3
:2036980096948F45D2008AA5DC0E1AC40002F66477009245D022903FCD95FFC0D022CAA85B
:2036A8009695761A6F027625FE8CFF6982BE86BE8BBE0006FE027622761F01C09229900736
:2036B800964150689629761AFE820006B2BDAABD76228F05D300761F174CC4A4C5A483A4C9
:2036C8008EA4DE22DF231AC60001DD261A220004C4A41A2200081A2200101A220020DE2830
:2036D8001A2220001A2240001AC700011A2300041A2301001AC5000183A4C5A4D82E1A26E3
:2036E8000002DD2A1A2600041A2600081A2600101A2600201A2600401A2600801AC600015C
:2036F800C4A41A2800021A2800041AC5000183A48BA4DF30DE32DD341A2A00021AC0000139
:203708008EA41A2E00021AC70001C5A4D93686A4D83CDF3E1A3000021AC60001C4A41A328F
:2037180000021AC5000183A41A3400021AC100018BA4DE43DD44DA46D9481A3600101AC070
:2037280000018EA41A3C00021A3C00041AC70001C5A41A3E00021A3E00041A3E0008761FA6
:20373800174D1AC60001C4A41A0300021AC5000183A4D84ADF4CDE54DD56DC581A04000298
:203748001A0400041A0400081AC200011A0600021AC100011A0800021AC000011AC700015D
:203758001A0C00021AC600011AC500011AC40001761A86BE8BBE0006FE06764836B2BE00FE
:20376800D401D53002031E422B430201C246764835B176FFCE6C3E67764836BEFE86000655
:203778007622761F174D1836FFFC761A7621FF6900067622761F174DCC36FFFE5002963614
:20378800761F1748180EFFFD180EFFFE761A7621FF6900067622D400761F174C3100BE0000
:20379800B6000200D500D000A822A926C228C32A1E2EC230A032A834A9361E3CC33E761F89
:2037A800174DC2021E043A06A008A80AA90CC314C2161E18761A0006B2BDFE028EA992A510
:2037B8009349C548520061052BAB28AA00806F023100530061048F4040006F02D500A0A930
:2037C800CBAACAAB5177FF5A92A452026004768001206F037680010083A006A6560100A59D
:2037D8004FC56DF392A452026004768001206F0376800100C342924290FF83A096422B4120
:2037E8000642CAABCBAA1E4206A6560100A506421EC592A452026004768001206F037680EF
:2037F800010083A006A6560100A54FC56DF3FE828BBE0006B2BDAABDA2BDFE04C454C2444D
:203808008855864E82507E421EA67D4187528D00010006A6FF1800014F968BA96DFB92415C
:20381800D500B600610752036103D0006F0676C01200FF2F40008EA992A4520161189244DA
:2038280040A96C09ABA928AC001218A907FF9100563B83A9A2A928AC00123AAB18A907FFF6
:203838009100563BCBAA1AA880006F0F924440A93AABABA918A81FFF56480DA5A2A918A8E8
:203848001FFFCBAA1AA8C000CAAB8EA9A0AB0644900018A84000CAABCBAAA34418AB0000E6
:2038580018AA8000CAABCBAAA34483A918AAC000064418AB00009B009001CBAACAABFF5815
:20386800610506A71AA910001EA792416103520360079242900F5CA906A7AFA41EA792448F
:2038780041A906A7508056480CA70644A3A718A904009100CAABCBAAA34418AB080018AA30
:203888000000CAABCBAA1EA706A6FF1200418AA906A6A0C4FF1300218AA9FE8406A63AC49E
:20389800FF1200438AA9AAA99B0090FF51F0C3C41EC182BE86BE8BBE00061EA6B2BD93A428
:2038A800913F804727462F452DC658A892AC8AA6504196C6CCA70003FF8580A918ACFFBF95
:2038B800DC0C3AA9AFA78EA9CCAA000FFF872FA93AA9AFAA8EA9CCAB0007FF8B27A93AA987
:2038C800AFAB8EA9020F89A5FF3FFF5A3AA9CAABCBAA1EC421C68BBE0006FE0488A4874A95
:2038D8008EA9DC83566500A6A9A788A40200A348F61F561700A792A65CABFFC05208660485
:2038E80092A6FFC06F029A0874A680A95204DE01DF8169039A036F0292A77E41DC817F424E
:2038F8009643CCA4003F88A992A4FFC55DA95CA63AA9764838A5FE8400068AA906449B00D7
:2039080090FF1EA6FF5AA8A9FF18000183A91AAA00108D000100A9C5A8A9FF1800014F9442
:2039180083A96DFB06A68D00010C889451841EC50006AABD1EA6A2BD06489B0090FFFF5A80
:20392800511086A906A6FF1800011EA78D000100AAC706A6FF1800014F961EA76DFB06A6E5
:20393800FF1200438EA95BC0A2A918A9FFF0910082A992A5900F2DA9A2A9AFAC1EC0A9A990
:2039480051901EC74FC76DFFAAC74FC76DFF8D00010C0E969B00900F1EAC06A6FF14001112
:203958001EA6ABA9610AD000D80192845AA03CC6ABA9DE010FA266F992A561048F030000A0
:203968006F02D400A8A9CBAACAAB51841EC782BE86BE0006B2BD1EA6AABDA2BD064A9B0097
:2039780090FFFF5A82A906A6FF1800011EA71AAA00108D000100A9C706A6FF1800014F9618
:203988008BA96DFB8D00010C0E969B00900FFF5A06A6FF1400111EA6A9A96118D20058A287
:2039980029010EA0FF41FF3007A41EA7CCA2001F2DA906C756221EA7D80192A73CC680A0B7
:2039A800DA08A9A9DE010FA766ED92A561048F0300006F02D400A8A9A2ABCBAACAAB518413
:2039B8001EC182BE86BE8BBE0006B2BD1EA6AABDA2BD064A9B0090FFFF5A82A906A6FF1883
:2039C80000011EA71AAA00108D000100A9C706A6FF1800014F968BA96DFB8D00010C0E96C4
:2039D8009B00900FFF5A06A6FF1400111EA6A9A96115D20058A229010EA0FF4007A41EA78D
:2039E800D801CCA2000F2DA993C7DA08FF6380A03DC6A9A9DE010FA766F092A561048F0367
:2039F80000006F02D400A8A9A2ABCBAACAAB51841EC182BE86BE8BBE0006B2BD1EA60646DC
:203A08009B0090FF1EACFF5A06A6FF1800011EA71AAA00108D000100A9C706A6FF18000132
:203A18004F968BA96DFB8D00010C0E969B00900FFF5A06A6FF1400111EA6A9A9610AB60035
:203A2800DF01928458A73CC6A9A9DE010FA066F992A561048F0300006F02D400A8A9ABAB2E
:203A3800CBAACAAB51841EC18BBE000683A906449B0090FF1EACFF5AA0A9FF1500091EA694
:203A48001AAA00338D000120A9C6A0A9FF1500094F951EA66DFB8D00012C92954FA96C1C73
:203A5800900F80A9A0A92BAA27A7FF14001383A992A7610AB600DF01C6C558A79684A9A918
:203A6800DD010FA066F9ABAB9A011AAA0004A9C64FC66DFF00069A000006B2BDAABDA2BDCE
:203A7800FE028BA4C44C82A586A98A4EC24276483A3E520088A96118AAA9FF13002586A9D2
:203A880006C24EA86D0B2BC128AC001206C2562218A907FF91001EC36F0756BF01C1A3C2EB
:203A980018AA1FFFA9C3FE8282BE92A686BE8BBE0006B2BD8BA9D0401AC1140156BF1A91D4
:203AA800D0409291903F522560FC1AC1800002017640A83C1AC100408BBE00068AA9C4448C
:203AB8008D000100A8A9FF1800014F9483A96DFBA8A9B600FF1300218AA906A69B0090FF3D
:203AC80051A0C3C41EC500061EA7B2BDD401BE1F8D0001003100FF1300218BA906A7FF18AD
:203AD800000183A9CC97800060FACCA400FFA9C10EA9DC0151A01EC5000EFFF28BBE0006D5
:203AE8008AA9C4448D000100A8A9FF1800014F9483A96DFBA8A9B600FF1300218AA906A6FC
:203AF8009B0090FF51A0C3C41EC50006C4448AA92901FF2080000FA661118D000100A8A919
:203B0800FF1800014F9483A96DFB06A69B0090FF51081EC54FC56DFF000692E40006B2BD8B
:203B1800AABDA2BDFE025AA45BA89641594B76228F407C00761F174C8AA51A360001D060C0
:203B2800761F01F1DC4C18C4FFFECC95FFFE5002D0469620CC95FFFE50029606180CFFFD0D
:203B3800CC20FFFB50089620CC06FFFB50089606761A8F048000A8A976483AA176228F0500
:203B4800D20ACCC4FFF396C4761AF6FA7700F6327700884129018F048000DE8127C492AB82
:203B5800504196C4CCA603C056030AA98AA9DA8156030CA280A9A8A9AFA78AA9DB815603D4
:203B680008A380A9A8A9AFA78AA9D981560306A180A9A8A9AFA78AA9CCA6003F88A98F447D
:203B7800800CA8A9AFA61EA68F04800EFF6976C480007EC58F4480DA768480D897C48F0444
:203B880080003FC72BC62BC518C4FFFEFE8282BE86BE8BBE0006FE02761F03060A08920840
:203B9800520160305CADDC825CA4764829FF76483E1E7648291C76483E0D761F0306924146
:203BA8000B0852006107761F03060A0B920B52016017761F0306920B611A761F0306920927
:203BB80060160A0976483E1E7648200C76483E0D761F03060B0B761F03060B096F080B0B64
:203BC8006F020B08761F030656BF0100FE820006761F03062B01B2BD2B0276483EFC764803
:203BD8003C0B761F21078B1002001EC17648292476483F79E801D418E8021781E80893787A
:203BE80076483E2EBE00761F030606C156B101A67E0276483E1E76483FA3764829F57648EE
:203BF8003F6F761F030692026108BE0006C156B001A67E01920260FA7648200876483F7969
:203C08009A008BBE0006B2BDFE06764836B276228D45D300C4A183A18AA1761F174CDE22B1
:203C1800DD2EDC441AC600041AC500011A2E0002761F174D1AC400011A0400021A04000439
:203C28001A040008761A0201BE00D401D5181E42020056BF0143C246764835B17622761FAF
:203C3800174C1A220008D9231A2200101A2200201AC100011A230100761F1748182CFFF8D8
:203C4800761A3B1076260000762F0000FF6976483EB076483F9376483C747622761F01F010
:203C5800D4003100B600BE000200A802A904761F01F1C302C204761F01F01E14761A56BF0B
:203C68000241D5019A0C9B05D40456BF014276483B17FE868BBE00060200761F00301901E9
:203C78008F000C001E022B068F400C0876800C10020031002B07B60019011AE400101A04EA
:203C88000020761F00301E0A761F0030020019011E12761F00302B0E02002B0F761F0030FF
:203C98002B162B17761F00301AE500101AE600101A0C0020761F00301A140020761F0305AF
:203CA800C222A9141E24A01AA812C31C0006E700000A83C4E6880012E20300E4E20301F465
:203CB800BFA90F1A19011ED583C42BF583C42BFD83C41AE5001083C41AE5002083C418E578
:203CC800FBFF83C418E5F7FF83C402001AE540001ED40006FE02BFA60F1228AC001706A60B
:203CD80056109B0090FF197F1EA702170FA7620702800FA76047E71000006F4406A76425E8
:203CE8002DA728A9FFFF9B7FA3A656108AA9CEABCFAAFF58A8AB6136E8038A49E80F96514E
:203CF800E71000407700E5A0AD14652506A663069A009B805610560100A6A9A9FF55FF5A02
:203D080006A6CEABCFAA6F16E8038A49E80F9651E71000407700E5A0AD14650D06A663095E
:203D180018A87FFFFF5861079A0028A8BF806F0202001EA606A6BDA90F1277007700770016
:203D28007700FE82000628AD0128FF69561F5616561AE61002002940761F00002902761B15
:203D380076483FCA52006142762228A941D828A800080901611B76C841D829046F0F9B0032
:203D480024A9DF016C04290424A8DF011EA6F7A1248606A781A109011EA724A96303FF5C33
:203D58003B0459A9DF010009FFEC28A9FFFF28A8FFFF090161058F3FFFFF76483ED8761AF9
:203D680076483FCC28A9FFFF28A8FFFF0901610E76FFFFFF6F06DF01C3BD1EA73E67C5BE27
:203D780024A9DF0124A8FF5860F776483F8176483E89761BFFF00005ABBDA8BDA0BDC2BDD3
:203D8800C3BDE20000BDE20300BDE20301BDE20302BDE20303BDE6300600FE02FF6929427F
:203D98005616761F0033922296411822FF7FF6057700762FFFFE56BF012176230001291076
:203DA800761F030692023B10761F0033FF69924196229A277648342CFE82E2AF03BEE2AF81
:203DB80002BEE2AF01BEE2AF00BEE28000BEC5BEC4BE83BE8ABE87BE00033B30FFF17617AE
:203DC8007602761BFFF00005ABBDA8BDA0BDC2BDC3BDE20000BDE20300BDE20301BDE203EC
:203DD80002BDE20303BDE6300600FE02FF6929425616761F0033922296411822FF3FF60546
:203DE8007700762FFFFE56BF0121762300012910FF6976483B933B109241761F0033962206
:203DF800FE82E2AF03BEE2AF02BEE2AF01BEE2AF00BEE28000BEC5BEC4BE83BE8ABE87BEF6
:203E080000033B30FFF1761776023B10761F0033CC220040FFC51822FFBFF6057700762F23
:203E1800FFFE56BF01212910FF6900063B10761F00331A2200402910FF69000652016104C1
:203E280076483E0D000676483E1E0006E6CF000AE8024BA18F00C152E8092001E700000912
:203E3800E6CF001076483CAF761F00301804FFEF7622761F00358F083DC9A80C761A761F55
:203E480000331A220040762300010006E20304BDFE02E6CF00047700BFA60F222BAB28AAF7
:203E58007F8006A618A87FFF0FAB6004E71001206F2306A6900018A88000FF58600D76489B
:203E68003CD2E72001017700E815F801AD146214E88FE0006F11E6AF000076483CD2E71050
:203E780000217700E815F801AD146204E88FE0007700E6AF0000FE82E2AF04BE00067700C2
:203E88006F00B2BD761F030559A9923A610D28ABFFFF28AAFFFF28A9FFFF28A8FFFF0FAB6B
:203E98006103767FFFFF761F0306C5043E67761F0305063E61041EA792A13E67761F030527
:203EA800063C61031EA73E6776483E878BBE00063B10761F00331820FFFE2B222B24FF69CC
:203EB8002B262B282B2A2B2C2B2E2B302B322B342B362B382B232B252B272B292B2B2B2D74
:203EC8002B2F2B312B332B352B372B390006761F00331A2000012821FFFF2910FF690006A9
:203ED800B2BDAABDA2BDFE0882A4D1005ACB6F155CAD2901560303A107A3DC8809025CA4A6
:203EE80083A9020876483F3F064261068A44834676483F3F5ACBD90192A254A166EAFE88C8
:203EF80082BE86BE8BBE0006764836B228A9004028A800008F483FD08F00A80076483F3FF7
:203F080028A9000028A800008F40A8008F00A80076483F3F7640A80028A9000028A800000F
:203F18008F40A8008F00A80076483F3F0006761BFFF0E20000BDE6300600294256167625EC
:203F28006F00761BFFF0E20000BDE63006002942561676256F00761BFFF0E20000BDE630B9
:203F3800060029425616F5A90CE076256F005200A8ABC5A4610788A9DE815C857C87000E00
:203F4800FFFE88A90FA6610F5300610D9DFF5CA876BFFFFE92859687000EFFFE9285968700
:203F5800000CFFF8A9A400067622761F01C042226CFD1A2200019A281822FFFD9B0056BF53
:203F68002829F4A97029F4A87029761A0006761F0306920C60057608293092BE00060B0C02
:203F7800000676083B3092BE761F03069001720C0006020028ABFFFF28AAFFFF19010FABC0
:203F880060049A00D4006F05A9A492C4A9A4DC0276483BD000068F4840168F000D067622CF
:203F9800BEDC06851E84000EFFFE761A761F00331A20000100067622761F01C056BF022277
:203FA800761A764834B27622761F01C02829032F761A0006761F0306A8060006761F0306CE
:203FB800A80400060006561F7622B9C028290068761A00483D2BFF58C4A4610419017D8671
:0A3FC80060FE00069A0100060006E4
:203FD00076228F45F800A0A9C4A5761F17E6FF170003DD208AA9DE241AC600011AC500031B
:203FE00018C4FFFD1800FFFE761F17E0CC00F1FF1AA905009600761F17E61A0000021A0066
:203FF0000001761F17ECCC00FFF8500A9600761AF6077700FF69000676228F05F80083A4A8
:20400000DC24DD2018C5FFFC18C4FFFE761A0006190156C3FFFF0006190156C3FFFF0006EE
:204010002BC000082BC000082BC000082BC000082BC000082BC000082BC000082BC00008F8
:204020002BC000082BC000082BC000082BC000082BC000082AC600082ABC00082E0700089E
:204030002B9800082D7800082BD400082C3800082A9400082A8A00082A8000082A760008A9
:204040002A6C00082A6200082A5800082A4E00082A4400082AB200082AA800082A9E000820
:204050002F5B00082F2900082EF700082A3000082A2600082BC000082AD000082A3A000816
:204060002D6400082D5000082D3C00082D2800082D1400082D0000082CEC00082CD80008AA
:204070002D6E00082D5A00082D4600082D3200082D1E00082D0A00082CF600082CE200084A
:204080002DAD00082DA300082D8F00082BC000082BC000082BC000082BC000082BC00008E3
:204090002CCE00082CC400082BC000082BC000082E2F00082E2500082E1B00082E110008D8
:2040A0002B0200082AF800082AEE00082AE400082BC000082BC000082BC000082BC000089F
:2040B0002DE900082DDF00082DD500082DCB00082DC100082DB700082BC000082BC00008EC
:2040C0002C5600082C6000082C4200082C4C00082BC000082BC000082BC000082BC0000800
:2040D0002B8E00082B8400082B7A00082B7000082EA700082E9D00082BC000082BC0000872
:2040E0002F3300082F5100082F4700082F3D00082F0100082F1F00082F1500082F0B0008C0
:2040F0002E9300082E8900082E7F00082E7500082E6B00082E6100082E5700082E4D000880
:204100002A1C00082A1200082A0800082BDE00082CB000082BC000082CA600082C9C000841
:204110002BC000082ADA00082BC000082BC000082BC000082BC000082BC000082BC00008DE
:204120002BC000082BC000082BC000082BC000082BC000082BC000082BC000082BC00008E7
:204130002BC000082BC000082BC000082BC000082BC000082BC000082BC000082BC00008D7
:204140002BC000082BC000082D9900082BC000082BC000082BC000082BC000082BC00008EC
:204150002B3E00082B0C00082BC000082BC000082B6600082B5C00082B5200082B48000891
:204160002BC000082BC000082BC000082BC000082B3400082B2A00082B2000082B16000813
:204170002BC000082BC000082C7E00082C7400082C9200082C8800082BC000082DFD000848
:204180002C2E00082C2400082C1A00082C1000082BB600082BC000082BC000082DF30008DC
:204190002C0600082BFC00082BF200082BE800082EB100082BC000082BC000082C6A0008FB
:2041A0002ECF00082EED00082EE300082ED900082BC000082BC000082BC000082BC00008E3
:2041B0002BC000082BC000082BC000082BC000082BC000082BC000082BC000082BC0000857
:2041C0002BC000082BA200082CBA00082BAC00082EC500082EBB00082E4300082E39000876
:0841D000C0000000F2CA7149B1
:2041D800FFFFC17A00000001FFFEC17C000000000000FFFEC17E000000000000FFFEC184D5
:2041E80000003FBA0008FFFEC18600003FBA0008FFFEC188000000000000FFFEC18A0000E3
:2041F80000000000FFFFC18300000000FFFFC18C00000000FFFFC1800000000000000000DB
:00000001FF
